:020000040800F2
:10000000589D012095030008C1520008B70400085C
:10001000B7040008291A0008C160000800000000A9
:10002000000000000000000000000000A70300081E
:10003000691A0008000000000304000811540008B9
:10004000AF030008AF030008AF030008AF030008C8
:10005000AF030008AF030008AF030008AF030008B8
:10006000AF030008AF030008AF030008311A00080F
:10007000391A0008411A0008491A0008AF0300089D
:10008000AF030008AF030008AF030008AF03000888
:10009000AF030008AF030008AF030008AF03000878
:1000A000AF030008AF030008AF030008AF03000868
:1000B00071570008AF030008AF030008AF03000842
:1000C000AF030008AF030008AF030008AF03000848
:1000D000AF030008AF0300081959000829590008A8
:1000E000AF030008AF03000800000000AF030008E2
:1000F000AF030008AF030008AF030008AF03000818
:10010000AF030008AF030008AF030008AF03000807
:10011000AF030008AF030008AF030008B957000899
:10012000511A0008AF030008591A0008611A0008A4
:10013000AF030008AF030008AF030008AF030008D7
:1001400000000000000000000000000000000000AF
:10015000AF030008AF030008AF030008AF030008B7
:10016000AF030008AF030008AF030008AF030008A7
:10017000AF030008AF030008AF0300080000000051
:10018000AF030008AF03000809590008AF030008D7
:10019000AF030008AF030008AF030008AF03000877
:1001A000AF030008AF030008AF030008AF03000867
:1001B000AF030008AF030008AF030008AF03000857
:1001C000AF030008AF030008AF030008AF03000847
:1001D000AF030008AF030008AF030008AF03000837
:1001E000AF030008AF030008AF030008AF03000827
:1001F000AF030008AF030008AF030008AF03000817
:10020000AF030008AF030008AF030008AF03000806
:10021000AF030008AF030008AF030008AF030008F6
:10022000AF030008AF030008AF03000800000000A0
:10023000AF030008AF03000800000000AF03000890
:10024000AF030008AF030008AF030008AF030008C6
:10025000AF030008AF030008AF030008AF030008B6
:10026000AF030008AF030008AF030008AF030008A6
:10027000AF030008AF030008AF0300080000000050
:10028000AF030008AF030008AF0300080000000040
:1002900000000000AF03000800F002F800F06AF868
:1002A0000AA090E8000C82448344AAF10107DA45D1
:1002B00001D100F05FF8AFF2090EBAE80F0013F0B9
:1002C000010F18BFFB1A43F001031847B45C01008B
:1002D000045D01000A4410F8014B14F00F0508BF3B
:1002E00010F8015B240908BF10F8014B6D1E05D002
:1002F00010F8013B6D1E01F8013BF9D1641E03D0DB
:10030000641E01F8015BFBD19142E4D37047000009
:10031000103A24BF78C878C1FAD8520724BF30C831
:1003200030C144BF04680C60704700000023002403
:1003300000250026103A28BF78C1FBD8520728BFF5
:1003400030C148BF0B6070471FB515F0B5FA00F01B
:1003500015FE04000020002115F090FA401C60609A
:100360000020002115F074FAE06000F007FB1FBDCB
:1003700010B510BD01F056F81146FFF7E5FF01F08A
:100380001FFB00F0F5F903B4FFF7F2FF03BC00F028
:10039000E3FD00000948804709480047FEE7FEE703
:1003A000FEE7FEE7FEE7FEE7FEE7FEE7FEE7FEE725
:1003B00004480549054A064B70470000915600085D
:1003C0009902000858850120589D0120588D012070
:1003D000588D0120EFF3108072B6704780F31088BB
:1003E0007047434A1368012B04D04FF00103136098
:1003F000404A1060404A116040484FF0805101600F
:100400007047EFF3108272B63948016851B34FF06C
:10041000000101603748016891B1EFF309811EF0D6
:10042000100F08BF21ED108B21E9F00F4FF00004F1
:100430001EF0100F08BF012441F8044D0068016050
:100440002D490968096808C9B1E8F00F002B18BFE9
:10045000B1EC108B81F309884EF0100E002B18BF01
:100460002EF0100E82F310884EF0040E70472249D1
:100470000860EFF3148222F0040282F314881D490D
:100480004FF0000008601A494FF0010008601C4856
:100490004FF47F01D0F8002041EA020101601748C3
:1004A0004FF08051016017480068006880F30888A9
:1004B00061B662B670471EF0040F0CBFEFF3088000
:1004C000EFF3098020E9F00F40F804ED40F804ED67
:1004D0001EF0040F0CBF80F3088880F3098800B574
:1004E00012F06AFF5DF804EB4EF0040E7047000056
:1004F00010840120F4810120FC81012004ED00E042
:1005000020ED00E008ED00E00FB400B58DB010A9BB
:10051000099000910B904FF0FF300A9000200C9052
:10052000064878440690064878446A4607900F9932
:1005300009A800F0D5FC0DB05DF814FBDB09000044
:10054000F30900002DE9FF5F1D464FF0FF3B914688
:100550004FF000085F46D5E90146A96901987F1C64
:100560008847296A824688470028F6D1BAF1FF3FBA
:100570000CD0002E24F4C06419DD600614D5BAF145
:100580002B0F09D0BAF12D0F0ED103E0584604B05D
:10059000BDE8F09F44F48064A96901987F1C8847F6
:1005A000761E8246002E02DDBAF1300F03D0B9F17B
:1005B000000F26D032E0A969761E01987F1C44F412
:1005C00000748847002E824605DDBAF1780F06D008
:1005D000BAF1580F03D0B9F1000F10D01EE0B9F1F5
:1005E000000F02D0B9F1100F18D1A969761E019839
:1005F0007F1C24F4007488478246102002E0082003
:1006000000E00A20814609E0A96908FB0908761E76
:1006100001987F1C44F4007488478246002E05DD53
:100620004946504600F0CBF90028EDDAE969019817
:100630008847A00502D46FF00100A8E7E00725D1A4
:10064000600613D5600502D5C8F1000000E0404601
:1006500029680A1D2A600968220501D5087015E07D
:10066000220701D5088011E008600FE02868011D0D
:1006700029600068210502D580F8008006E0210786
:1006800002D5A0F8008001E0C0F8008038467EE77F
:100690002DE9FF5F4FF000089946144646469169E0
:1006A000D2E901A7DDF838B001988847054659EA34
:1006B0000B0005D009E0A1690198761C8847054622
:1006C000216A284688470028F5D1681C03D05FEAD4
:1006D000CA7005D015E04FF0FF3004B0BDE8F09FC0
:1006E0002068011D2160D0F800800AE05FEACA702E
:1006F00001D108F8015BA169761C01987F1E88472B
:100700000546002F1ADD681C18D0B9F1000F0DD076
:10071000E81705EBD060421120F01F0059F82210B5
:100720002A1A012090400142E0D107E0BBF1000FFE
:10073000DCD12846216A88470028D7D0E169019892
:100740008847BBF1000F07D1002E05DD5FEACA70B4
:1007500002D1002188F80010A068B84203DDBBF187
:10076000000F03D017B16FF00100B6E73046B4E7D1
:1007700010B50446AFF300802046BDE81040FFF7F7
:1007800002BE30B505460B462A4613F8014B12F857
:10079000010B08B1A042F8D01CB1002802D06D1C9A
:1007A000F1E7284630BD10B5431C02E010F8011BEC
:1007B00071B18107FAD14FF0013202C88C1A8C4313
:1007C00014EAC211F9D0C01A0A0603D0C01E10BD27
:1007D000C01A10BD0A0401D0801E10BD0902FCD051
:1007E000401E10BD032A40F2308010F0030C00F0D0
:1007F000158011F8013BBCF1020F624498BF11F85B
:1008000001CB00F8013B38BF11F8013BA2F1040213
:1008100098BF00F801CB38BF00F8013B11F003038B
:1008200000F02580083AC0F0088051F8043B083AEF
:1008300051F804CBA0E80810F5E7121D5CBF51F891
:10084000043B40F8043BAFF30080D20724BF11F80B
:10085000013B11F801CB48BF11F8012B24BF00F870
:10086000013B00F801CB48BF00F8012B704710B5E1
:10087000203AC0F00B80B1E81850A0E81850B1E859
:100880001850A0E81850203ABFF4F5AF5FEA027C98
:1008900024BFB1E81850A0E8185044BF18C918C0C8
:1008A000BDE810405FEA827C24BF51F8043B40F869
:1008B000043B08BF7047D20728BF31F8023B48BF4E
:1008C00011F8012B28BF20F8023B48BF00F8012B8C
:1008D000704702F0FF0343EA032242EA024200F0BB
:1008E00002B84FF000020429C0F0128010F0030C8F
:1008F00000F01B80CCF1040CBCF1020F18BF00F813
:10090000012BA8BF20F8022BA1EB0C0100F00DB8C1
:100910005FEAC17C24BF00F8012B00F8012B48BF1F
:1009200000F8012B70474FF0000200B513469446C3
:100930009646203922BFA0E80C50A0E80C50B1F137
:100940002001BFF4F7AF090728BFA0E80C5048BF4B
:100950000CC05DF804EB890028BF40F8042B08BFE9
:10096000704748BF20F8022B11F0804F18BF00F8E5
:10097000012B7047704770477047000070B5064CF8
:100980007C44064D7D4404E02046016808448047CD
:10099000241DAC42F8D170BD885701008857010072
:1009A000004870479004002010B5FFF7F9FF006879
:1009B00010BD10B50446FFF7F3FF046010BD3A28E0
:1009C00000D2303820F02002412A01D3A2F13700B2
:1009D000884201D34FF0FF30704700002DE9FF4FF0
:1009E00006468BB00878FF2806D0491C2D2805D074
:1009F00000244FF0000908E000200CE00124F8E793
:100A000009EB8903491C00EB43090878FF28F7D15B
:100A100014B1C9F100008146107800252C46AA4681
:100A200029462D2801D02B2804D1521C2D2813D063
:100A3000002082468B461078FF280FD04FF0000C24
:100A40000A21521CA5FB017804FB018105FB0C1156
:100A5000C5194BEB0104EEE70120EAE70021084647
:100A60004FF00000BAF1000F02D000EB8000400808
:100A7000C0F38157012F01DD4FF0FF370E9955EA82
:100A8000040009EB01080BD04FF0020918F5FA7FBA
:100A900016DA4FEACA70002F706008DD012007E007
:100AA0004FEACA70C6E900B00FB0BDE8F08F002071
:100AB0003060FFF775FFC0F800901821084616E077
:100AC000B8F5FA7F18DD002F02DAF748784401E024
:100AD000F6487844D0E90010C6E9001040EACA7030
:100AE0007060FFF75DFFC0F80090142108460FB05A
:100AF000BDE8F04F14F0EDBE002108464FF00000B5
:100B0000B8F10001099002DAC7F1000200E03A46AC
:100B100001DAC8F1000106A800F00AFC06AB93E870
:100B2000070003AB83E8070044F23E005BEA0401E0
:100B30000090584604D144F21E012C465D460091B7
:100B4000210C0904014306D10099240444EA154408
:100B50002D041039009104F07F41014306D1009922
:100B6000240244EA15642D020839009104F0704112
:100B7000014306D10099240144EA15742D01091F8F
:100B8000009104F04041014306D10099A40044EAD9
:100B90009574AD00891E009104F00041084304D112
:100BA00000986D196441401E00904FF001033A46D1
:100BB0006846B8F1000FCDE9014503A902DD13F045
:100BC000FCFB01E013F0CFFBBAF1000F04460D4629
:100BD00001D084F00044002108464FF0000009993C
:100BE00040F2FF77484010F00C0F07D124F000408E
:100BF000284303D0C4F30A50B84212D1FFF7D0FE05
:100C0000C0F80090C4F30A50B8420AD1A84878440A
:100C1000D0E90010C6E9001004F0004108437060FC
:100C200042E7C6E900543FE72DE9FF4F1F464FF06A
:100C3000000A4FF0FF38454691B0D7E90146CDF89C
:100C40003CA000F09BF9C0680168405C1090B96955
:100C500012986D1C8847396A814688470028F6D16A
:100C6000B9F1FF3F0AD0002E24F4D06411DDB9F1B0
:100C70002B0F08D0B9F12D0F0BD102E0404615B073
:100C800013E744F48064B96912986D1C8847761E96
:100C90008146600504A901D52D2000E02B20002EFF
:100CA00001F1010B0DF130088DF810003FDDB9F1B5
:100CB000690F08D0B9F1490F05D0B9F16E0F02D014
:100CC000B9F14E0F1CD13B4601A8009580E85002B7
:100CD000DDE912126FF0020014F062FEC11CCED1E9
:100CE0000EE0B96912986D1C884781461398761EEC
:100CF00044F4007405600F98401C002E0F9016DD20
:100D0000B9F1300FEDD0B9F1780F02D0B9F1580F29
:100D10000DD10F9801280AD13B46CDE90054DDE9F9
:100D20001212001F029614F039FEC11CA7D11099AF
:100D300089453ED144F0800406E01399681CAAF16D
:100D4000010A44F400740860B9696D1C1298761E9B
:100D5000884730288146F0D02BE01099894505D18D
:100D6000200603D4761E44F0800418E0484614F0B0
:100D7000D7FC08B3761E0DF123029345A9F130008C
:100D800044F4007406D20BF8010B200607D5AAF133
:100D9000010003E0200602D40AF101008246A0050A
:100DA00002D51399681C0860B96912986D1C8847B0
:100DB0008146002ED1DC53E0002E51DDB9F1650FE4
:100DC00002D0B9F1450F4BD1A00549D5B9696D1CC9
:100DD0001298761E24F440748847002E81460CDD5C
:100DE0002B2804D0B9F12D0F07D144F48074B969D0
:100DF00012986D1C8847761E8146E00501D52D218D
:100E000000E02B2108F8011BCDF8008021E0761EC0
:100E10000DF13901884544F400740CD2A9F1300079
:100E200010F0FF0088F8000002D10099884509D928
:100E300008F1010806E0E00501D51E4801E042F294
:100E40000F708246B96912986D1C884781461398C5
:100E50000560002E04DD484614F062FC0028D6D15F
:100E6000F96912988847FF2053468BF8000088F8EC
:100E7000000000200A900B9004AA0CA90AA8FFF712
:100E8000ADFDA00502D46FF00100F8E614F0240FC8
:100E900012D0E0071CD13868DDE90A12031D3B605F
:100EA0000068C0E9001213E008550100FA5401007F
:100EB000BE530100F1D8FFFF0AA9684614F0D4FB25
:100EC000E00705D13868009A011D396000680260AA
:100ED0002846D4E60268114413780160184670472A
:100EE000D160054979445161044979441162002176
:100EF0001161114600F062B8EDFFFFFFBD00000078
:100F0000426842B1016811F8013B23B1521EC0E9A9
:100F10000012184670470121C160881E7047426860
:100F20005AB1C368016843B983688B4205D0491E32
:100F3000521CC0E90012002070474FF0FF3070478C
:100F400010B5002000F066FAFFF712FABDE8104075
:100F5000012000F001B8000001491820ABBEFEE7F7
:100F600026000200004870479004002010B500F0F1
:100F700005F8001D10BD00BF05490100004870477D
:100F8000B0040020B2F120030AD5C2F1200301FA17
:100F900002F120FA03F341EA030100FA02F070477C
:100FA00000FA03F14FF00000704710B50446FFF758
:100FB000DDFF0068005D00F0010010BD2DE9F34F7A
:100FC0004FF0000A0C4656468DB001200C9001F1FE
:100FD0000C000B9062690B9801219047051E2DD0E3
:100FE000252D2CD0216A8847C0B162690B98012158
:100FF0009047216A88470028F7D16269411E0B9803
:10100000904700E0761CA1690D988847216A8847BF
:101010000028F7D1E1690D988847DBE7A1690D98B1
:101020008847A842074601D1761CD3E7E1690D98AD
:1010300088477F1C02D1BAF1000F6FD06BE1626963
:101040000B9800273D46394690472A2804D162690B
:101050000B98012190470125DFF8D08262690B9837
:1010600001219047A0F130010A290AD24745E5DC69
:1010700007EB870100EB4107303FDFD445F0100557
:10108000ECE7E90601D46FF000476C280AD04C2841
:1010900014D0682815D06A280DD074281CD07A285E
:1010A0001AD01DE062690B98012190476C2802D08C
:1010B00045F0040514E045F002050DE045F020057B
:1010C0000AE062690B9801219047682802D045F038
:1010D000080505E045F4006562690B980121904719
:1010E000C4E9015765283DD019DC58287AD00CDCBA
:1010F000452837D004DC252826D041289ED131E070
:1011000046282FD0472899D12CE05B2877D061283A
:1011100028D063287CD0642823D15AE0F6E06F28D9
:1011200048D008DC66281DD067281BD0692821D04C
:101130006E2816D127E0702845D0732868D075280E
:1011400047D078280DD14DE0A1690D988847252812
:1011500005463FF469AFE1690D9888476D1C3FF47F
:101160006AAFD8E00D9923466A466FF0010014F08B
:1011700013FCC5E045F0400023464FF000026060DC
:10118000A80736D43EE0E8077FF447AF2068011D8A
:1011900021600068290501D506701BE7290701D5E4
:1011A000068017E7A90703D5F117C0E9006111E729
:1011B00006600FE745F0400023464FF008026060EC
:1011C000A80716D41EE040F60E0125EA0100606073
:1011D00016E045F0400023464FF00A026060A80781
:1011E00007D40FE045F040006060A80708D523460B
:1011F00010220D996FF00100AFF3008080E007E04E
:10120000102223460D996FF00100FFF79BF977E05C
:101210004FF0000963284F46C8464B46CB4602D0E4
:101220005B2806D038E0E80601D40120A060012741
:1012300032E06269D4F80CB00B98012190475E2827
:1012400007D14FF0010949466269D4F80CB00B98F8
:101250009047216939B900210A4603AB43F82120A0
:10126000491C0829FADBD8B3216949B308F1010800
:1012700062690B98012190475D28F4D1B9F1000F04
:1012800009D0002003A951F82020D24341F82020A2
:10129000401C0828F7DB03AB2069002820794FEABF
:1012A00040701ED05B462246CDF80080CDE9019704
:1012B0000D9900286FF0010020DAAFF300801FE0E5
:1012C000C11703AA00EBD1614B1121F01F0102EB02
:1012D0008302411A13680120884003431360C7E763
:1012E00019E00D99224600286FF00100009702DAFC
:1012F000AFF3008004E0FFF7CBF901E0AFF300802B
:1013000000280ADA401C06D10C9820B14FF0FF30BB
:101310000FB0BDE8F08F5046FAE7E90701D10AF1B6
:10132000010A064400200C9054E60000CCCCCC0C02
:101330002DE9F047814616468AB0354878440DC8F5
:101340008DE80D0032487844801C03AC0DC884E859
:101350000D0041F69B300844372190FBF1F290FBE1
:10136000F1F5A5F1800501FB12041B3C02D5644296
:10137000012000E00020DFF898A080460027FA4412
:10138000AAF1BE0A0EE0E0070AD03246684607EB33
:10139000470101230AEB810112F0FAFF8DE80700F3
:1013A00064107F1C002CEED1194F7F44AE3F19E032
:1013B000E80715D007EB04100DF1180A90E80E00AD
:1013C0008AE80E00C068F04201D1981908903246B0
:1013D000012306A903A812F0DBFF03AB83E8070093
:1013E0006D10641C002DE3D14FF0010332466946B5
:1013F000B8F1000F03A802D012F0A0FF01E012F034
:10140000C7FFC9E90001C9F808200AB0BDE8F087A4
:101410008C49010010B500F05BFABDE8104000F007
:1014200051BA70477546FFF79DFDAE460500694607
:10143000534620F00700854618B020B5FEF7B8FFE8
:10144000BDE820404FF000064FF000074FF00008C5
:101450004FF0000BAC46ACE8C009ACE8C009ACE802
:10146000C009ACE8C00921F007018D4670470000B3
:101470002DE9FF4F1F464FF03C0987B04FF0004267
:10148000DDE9141001F10108DDF858A002EA40502E
:101490000390002005908346054604460490B969F0
:1014A000461E08988847AAF1010A0290BAF1000F77
:1014B0003BDD02982E2815D01021FFF780FA002876
:1014C0002EDB4FF0010B0599014317D0B9F1000F46
:1014D0000BDB4A46C117FFF755FD05430C43A9F145
:1014E000040905E0012004900BE008B145F0010576
:1014F00001200590049820B9361D02E0049800B13F
:10150000361FB969089808F101088847BBF1000F38
:10151000AAF1010A0290C9D00999C1F80080C5E773
:101520000298702808D0502806D0F9690898884792
:10153000BBF1000F14D04FE0002002900120BBF15E
:10154000000F049009D0B969089808F1010888478C
:10155000AAF10109B9F1000F07DCF9690898884779
:101560006FF001000BB0BDE8F08F2B2804D02D28C0
:101570000CD14FF0FF300490B969089808F10108C8
:101580008847A9F10109B9F1000FE6DD411CE4D05B
:101590000A21FFF714FA0028DFDB029908F101089D
:1015A00001EB810100EB41000290B969089888477E
:1015B0000A21FFF704FA099AA9F10109B9F1000F0C
:1015C000C2F8008001DD0028E7DAF9690898884749
:1015D0000499029800FB016655EA040004D004F067
:1015E0004041090002D006E0039898E0A40044EAD4
:1015F0009574AD00B61E04F00041080002D16D19CB
:101600006441761E159810F0240F03D04FF00B099B
:101610005C4803E04FF028096FF07D008246564594
:1016200007DAAAEB06018944B9F1410F01DD4FF059
:10163000410901200021A9F10102FFF7A3FC0246A4
:1016400028400B462140084301D0012100E0002141
:10165000501E029143F1FF3128402140084301D040
:10166000012000E000200299834651EA0B014FD08F
:10167000002108464FF00000039900F4400039B102
:1016800000EB80004FF4400100EBD07001EA6000F5
:101690008015012802DD4FF0FF3000E013D0401C20
:1016A00036D0029860B3BBF1000F0CD14A4601203E
:1016B0000021FFF767FC28402140084301D00120AA
:1016C00000E00020E0B101204A460021FFF75AFC6B
:1016D000034640190A4661412D1A8C4111D3B9F1D4
:1016E000400F09DD159810F0240F02D0AAF134063E
:1016F00003E0AAF1170600E0761C00254FF0004435
:1017000006E05B1E42F1FF3220EA030521EA0204F3
:10171000CAF10100B04206DA1B4903980843019060
:10172000002000900EE0039AC4F3D321E80A0A4394
:10173000164940EA44500A433146CDE90002684662
:1017400013F09BFF159810F0240F0BD01598C007CD
:1017500015D13868DDE90012031D3B600068C0E95F
:1017600000120CE002A8694613F07EFF1598C0072E
:1017700005D13868029A011D396000680260404650
:10178000F0E6000002FCFFFF0000F07F0000F03FE9
:101790002DE9FF4F92461D4685B04FF00041DDE92F
:1017A000124BDDE914727F1E01EA4B50414940F0B3
:1017B000FF4940EA0108002122F020004928049155
:1017C00002D04E2828D04CE03BA0012607C88DE867
:1017D0000700A9690698641C88477F1E014606D445
:1017E0001DF8060018B121F0200181420BD0E969F3
:1017F00006988847032E34D0082E32D06FF00100AF
:1018000009B0BDE8F08F761C032E01D0082EE0D180
:10181000601CCAF80000DCE7A9690698641C8847C8
:101820007F1E2AD420F02000412826D1A9690698DD
:10183000641C88477F1E20D420F020004E281CD135
:10184000A9690698641C88477F1E48F4002849F45B
:101850008009CAF8004001D4282806D0E969069812
:1018600088475FEACB7012D022E0A9690698641C11
:1018700088477F1E01D4002803DAE9690698884763
:10188000BCE72928F1D1641CCAF80040E9E71BF045
:10189000240F07D028680499031D2B600068C0E955
:1018A000001805E02868021D2A600068C0F8009052
:1018B0002046A5E70000F07F494E46494E4954595D
:1018C00000000000002801D0FFF746BB7047000071
:1018D00010B5002102A000F051F8012010BD000059
:1018E000534947414252543A2041626E6F726D61D2
:1018F0006C207465726D696E6174696F6E000000B2
:1019000030B44FF0013C50F8042BCCFA52F451F8AB
:10191000043BD51A20D1FCB950F8042BCCFA52F470
:1019200051F8043BD51A17D1B4B950F8042BCCFAAE
:1019300052F451F8043BD51A0ED16CB950F8042B6F
:10194000CCFA52F451F8043BD51A05D1002CDAD068
:1019500030BC4FF00000704729BAB1FA81F111F0A4
:101960001801D1F120008440F2D1CA40CB4012F0DE
:10197000FF0213F0FF0330BCD01A704770B5054664
:101980000C460A2000E06D1C00F011F835B12878F3
:101990000028F8D102E0641C00F009F814B12078A6
:1019A0000028F8D1BDE870400A20AFF3008008B5E8
:1019B00069468DF800000320ABBE08BD00000000A2
:1019C00010B584B0FEF706FD11F0DEFC11F0ECFE60
:1019D00011F052FF11F008FF4EF6E8344EF2E830F5
:1019E000C2F2000445F6687143F2C922C2F2000057
:1019F00000904FF4006001900A200290C0F60101AF
:101A0000C0F60102002314200390204611F0A8FF25
:101A1000204612F059F811F037FF11F07DFF11F058
:101A20000FFF002004B010BDFEE700000000000022
:101A30007047000000000000704700000000000038
:101A40007047000000000000704700000000000028
:101A50007047000000000000704700000000000018
:101A60007047000000000000704700000000000008
:101A7000EFF3108072B600002DE9F04381B042F21E
:101A8000100889460546C5F2002800F089FB474644
:101A9000B9F1020F08BF07F580773968490709D403
:101AA000B9F1010F1BD10021D8F80000C1F2EE718D
:101AB00008401CE006466C1C03E000BF3868400785
:101AC000EED5002CFAD000F06BFB01464FF003007E
:101AD00015B1891BA942F1D901B0BDE8F0830021FD
:101AE000D8F80001C1F2EE71084000F1004020F08A
:101AF000004181B10F224EF65853C1F6EF72C2F287
:101B0000000302409F69824247EA00029A610ED1B7
:101B1000C8F804000DE0B9F1010F0ED1D8F80000AB
:101B2000C00312D54FF48030C8F804000DE0C8F8A7
:101B30000411012001B0BDE8F083D8F80001C00312
:101B400003D54FF48030C8F80401002001B0BDE88F
:101B5000F0830000000000002DE9F04F81B04EF648
:101B60005858C2F2000898F81420012A02D14FF008
:101B7000020B27E00546012088F814004FF0000B07
:101B8000C8F818B089462879C00709D04CF25030FF
:101B90000121FFF771FF8346002818BF4FF0010BAA
:101BA0002879800708D54CF250300221FFF764FFF6
:101BB000002818BF4FF0010BBBF1000F07D0002029
:101BC00088F814005FFA8BF001B0BDE8F08F286848
:101BD000012822D1686842F20C0600F00301C5F228
:101BE0000026032929697BD1326822F03002326055
:101BF000D6F8002122F03002C6F8002132680A43EC
:101C00003260D6F800211143C6F80011F16841F0A6
:101C10001001F160C00769D175E04FF0FF30C9F8DD
:101C20000000D5E9027038448742C8D242F20C0A5B
:101C30003E02C5F2002A40F2047400BF6A682969B6
:101C400012F0010028D1920739D450B14CF2503033
:101C50000121FFF711FF8346DAF80000A043CAF81C
:101C60000000287980070AD54CF250300221FFF796
:101C700003FF8346DAF80001A043CAF800015FEAD7
:101C80000B6054D1D5E9020101370844874206F5BB
:101C90008076D3D393E700BFDAF8003041EA060438
:101CA00023F4E663CAF80030DAF80030234340F248
:101CB000047443F08403CAF800309207C5D5DAF8FB
:101CC0000021314322F4E662CAF80021DAF800214B
:101CD000114341F08401CAF800110028B6D1C0E7D1
:101CE000C20727D1820732D4C0070CD04CF2503043
:101CF00001210127FFF7C0FE002818BFBB4630684E
:101D000020F008003060287980077FF558AF4CF24A
:101D100050300221FFF7B0FE002818BF4FF0010B32
:101D2000D6F8000120F00800C6F8000147E7C9F81E
:101D3000007044E7326822F03002326032680A43B1
:101D40003260326842F0880232608207CCD5D6F821
:101D5000002122F03002C6F80021D6F800211143FC
:101D6000C6F80011D6F8001141F08801C6F800113C
:101D7000C007BBD1C7E7000042F20C01C5F2002149
:101D8000086840F0010008600868C0074FF00100D3
:101D900008BF7047D1F8002142F00102C1F80021CC
:101DA000D1F80011884370472DE9F04F81B04EF60D
:101DB0005858C2F2000898F81400012803D10220F4
:101DC00001B0BDE8F08F0E4615466FF313060F46BF
:101DD000B6F1006F4FF0010488F8144003D0B6F15B
:101DE000016F44D102244CF2503021464FF00009DB
:101DF000C8F81890FFF740FEA0BB42F20C0BB6F1FA
:101E0000006FC5F2002B4FF008020BF5807A5046A8
:101E100004BF42F20C00C5F20020016841F002014B
:101E20000160BFF36F8FBFF34F8F381F291F00BFB3
:101E3000013A51F8043F40F8043F1306F8D1BFF3CC
:101E40006F8FBFF34F8F4CF250302146FFF714FED7
:101E5000B6F1006F08BFDA46DAF8001021F002018F
:101E6000CAF8001088F8149001B0BDE8F08F012086
:101E700001B0BDE8F08F000042F20400C5F200207E
:101E80008168C9070CD040F22311C4F26751016088
:101E900048F6AB11CCF6EF5101608168C90715D146
:101EA000D0F80811C9070FD040F22311C4F26751CE
:101EB000C0F8001148F6AB11CCF6EF51C0F8001194
:101EC000D0F80801C00701D10020704701207047F9
:101ED0002DE9F04F81B042F200420A23C5F602021A
:101EE000904208BF09230029009377D000F12642D1
:101EF000009B02F1FF7200274FEAB2220126092A55
:101F000038BF1346002200932AE000BF6FF003049D
:101F1000032304EA5804056803FA02F9044445EA75
:101F20000905056007F01C050F2303FA05FC256A67
:101F300025EA0C052562C56825EA0905C5604568DE
:101F400025EA0E054560856825EA0903836031FAB4
:101F500006F306F1010607F1040702F102023DD083
:101F6000A6F10108012303FA08FE1EEA010AEED0D9
:101F700040F208434FEA9809C5F6000307F00C0B3E
:101F800053F829500F2303FA0BFC009B05EA0C05BC
:101F900003FA0BF39D42B9D10424C5F60004E36FA4
:101FA00023EA0A03E367D4F8803023EA0A03C4F87B
:101FB0008030236823EA0A0323604FF0B04423688B
:101FC00023EA0A03236040F20844C5F6000454F8EB
:101FD000293023EA0C0344F8293097E701B0BDE823
:101FE000F08F0000000000002DE9F04F82B042F2B7
:101FF00000420A27C5F602020B68904208BF092773
:10200000002B009700F0C08000F1264240F2040A45
:1020100002F1FF72C5F6000A4FEAB227009A092FB3
:102020004FF0000438BF3A4600260127009209E02D
:102030000B68043633FA07F207F1010704F10204D2
:1020400000F0A280A7F10108012202FA08FB13EABE
:102050000B09EDD0D1F804E00EF00303A3F1010C5D
:10206000BCF1010F12D80322D0F808C0A240CD68FD
:102070002CEA0202A5402A438260CEF30015426892
:1020800022EA0B0205FA08F52A434260032B1FD00F
:102090000325C268A540022B22EA05028D6805FAD5
:1020A00004F542EA0502C26012D16FF0030206F0A5
:1020B0001C0502EA58020F23024403FA05FED2F877
:1020C00020C00B692CEA0E0CAB4043EA0C031362F0
:1020D00003230268A3404D689A4305F00303A3401D
:1020E00015F4403F42EA03020260A1D044F2F443F7
:1020F00040F2084EC5F60203C5F6000E0F251A6819
:1021000042F002021A601A6802F00202019228F0FC
:102110000302019B06F00C0352F80EC09D402CEA0E
:10212000050C009D05FA03F343EA0C0342F80E3058
:102130004FF0B04EDEF800C04B684CEA0905DA02F9
:1021400058BF2CEA09059A02CEF80050DAF800C010
:102150004CEA090558BF2CEA09059A03CAF8005051
:10216000DAF880C04CEA090558BF2CEA0905DB0300
:10217000CAF88050DAF87C2042EA090558BF22EA02
:102180000905CAF87C5053E702B0BDE8F08F0000A3
:10219000002A08BF090481617047000000000000A8
:1021A00048F24840C2F20100006870470000000099
:1021B00040F2884048F24841C2F20000C2F20101F8
:1021C00000780A68104408607047000000000000B2
:1021D00080B5032000F024F900F096FA44F218418B
:1021E00045F61C53C5F60201C0F601030A680968EA
:1021F00001F00F01C2F30322595C9A5C01F01F0148
:1022000002F01F02D04040F20442C2F2000220FA63
:1022100001F1116040F20041C2F2000108600F209C
:1022200000F00AF800281CBF012080BD00F0A8F8CB
:10223000002080BD00000000B0B58AB00F2842D851
:102240000446372000222146002500F0B9F8372047
:1022500000F0A6F840F28C40C2F20000046044F2A4
:10226000E840C5F60200016841F020010160006805
:1022700001A900F020000290029802A800F0C0F925
:10228000079C002C18BF012400F00EFA4DF6836164
:10229000A040C4F21B3141F20042A0FB01014EF20A
:1022A0007810C2F200004FF0FF33C4F20002026067
:1022B00003EB9141C0E9011540F2E731C0E9031594
:1022C00000F012FD10B101200AB0B0BD4EF278103E
:1022D000C2F2000000F03CFD0AB0B0BD00000000FA
:1022E000B0B502784EF69C5CCEF2000C43784CF808
:1022F000043CF2B14368CCF80030037BC17A90F81B
:102300000AE0457B447A42EA0372837B42EA016138
:10231000C27B41EACE41007A41EA854141EA43412C
:1023200041EA024141EA042141EA4000CCF80400BC
:10233000B0BD0020CCF80000CCF80400B0BD000017
:102340004EF62450CEF20000BFF35F8F016821F4F7
:10235000803101600021016770470000000000002B
:102360004EF6245140F00100CEF2000108670868E3
:1023700040F480300860BFF34F8FBFF36F8F70471A
:1023800081B044F2F440C5F60200016841F0020158
:102390000160006800F002000090009801B07047F2
:1023A000002848BF704700F01F01012202FA01F126
:1023B0004EF200124009CEF2000242F8201070479F
:1023C00070B54EF60C5C4FF0FF36CEF2000C00F10B
:1023D0006045DCF80030C3F3022E8EF00703042BB7
:1023E00028BF0423BEF1030406FA03F321EA030124
:1023F00000F00F0338BF0024043BB0F1FF3F6344FB
:1024000006FA04F003F10C0301FA04F1C8BF05F564
:10241000644322EA000008430001187070BD000008
:102420004EF60C514FF6FF03CEF200010A681A4037
:1024300060F30A2242F0806040F0FD70086070474F
:102440002DE9F04142F20008C5F20028D8F800005A
:1024500000F00F0006280CD8D8F80000072161F31F
:102460000300C8F80000D8F8000000F00F000728AB
:1024700031D144F20047C5F60207FFF791FE04464A
:10248000386840F0010038603868400707D4FFF72B
:1024900087FE001B0228F7D90320BDE8F081786889
:1024A00049F2000140F0804078600020386140F23D
:1024B0000040C0F2D031C2F2000040F28C42C2F2C1
:1024C0000002016040F20440C2F2000001601068A6
:1024D000FFF7B2FE10B10120BDE8F081FFF760FE0A
:1024E000044641F2883600BF3D69FFF759FE15F0FA
:1024F000380F054605D0281BB042F5D90320BDE8AA
:10250000F0814EF645513868CFF6F67108403860D4
:102510003C68FFF745FEA103044605D5601B64280F
:10252000F6D90320BDE8F081386820F0807038606B
:102530003D68FFF735FEA901054605D5281B022891
:102540004FF00300F4D956E0386820F0806038601E
:102550003C68FFF725FE2101044605D5601B0228D3
:102560004FF00300F4D946E0386820F0805038601E
:102570003868800007D5FFF713FE001B02284FF0D4
:102580000300F5D937E040F200210020B861C0F225
:102590000221F8613862B9620021C0F2FF11F962CC
:1025A00040F28021C0F2011139637863B963F863A6
:1025B00039647864396821F48021396038664FF0D5
:1025C000FF30B866D7F8D00040F48030C7F8D000AC
:1025D000D8F8000000070DD5D8F80000072161F3F6
:1025E0000300C8F80000D8F8000000F00F0007282A
:1025F0007FF471AF0020BDE8F08100000000000012
:102600003F22026044F21842C5F6020252F8083C2A
:1026100003F007034360136803F470638360136877
:1026200003F00F03C360136803F070030361536882
:1026300003F070034361536803F4E06383619268BD
:1026400002F07002C26142F20000C5F20020006890
:1026500000F00F000860704780B500F055F844F2B4
:10266000184145F61C53C5F60201C0F601030A687D
:10267000096801F00F01C2F30322595C9A5C02F071
:102680001F0220FA02F201F01F0040F2044122FA78
:1026900000F0C2F20001086040F20041C2F2000105
:1026A0000A6080BD0000000080B500F02DF844F203
:1026B000184C45F61C51C5F6020CC0F60101DCF8B9
:1026C0000020DCF8003003F00F03C2F30322CB5CE0
:1026D0008A5C02F01F02D04003F01F0240F2044364
:1026E00020FA02F2C2F200031A6040F20043C2F282
:1026F00000031860DCF80400C0F30210085C00F06E
:102700001F0022FA00F080BD44F20041C5F602012C
:102710000869C0F3C20003280FD002282AD060BB8A
:102720000868800649F20000C0F2D03058BF7047F8
:102730000968C1F3C101C84070478A6A886AC0F35A
:10274000051CC86ABCF1000F4B6B1BD0C3F3CC0354
:1027500000F00100584302F00302022A00EE100AC2
:10276000B8EE400A10D092B90868800612D49FEDE6
:10277000251A1CE04FF0FA70704740F60010C0F2C6
:102780003D007047002070479FED1D1A0FE09FED40
:102790001B1A0CE0086849F20002C0F2D032C0F304
:1027A000C10022FA00F001EE100AB8EE411A086BDF
:1027B0009FED153A6FF35F2002EE100A086BC0F32D
:1027C0004620B8EE422A013000EE032A00EE10CA7D
:1027D000B7EE003AB8EE400A81EE000A32EE031A74
:1027E00020EE010A01EE100AB8EE411A80EE010A4D
:1027F000BCEEC00A10EE100A704700BF0024744AF5
:102800000000FA4B0024744C000000390000000066
:1028100070B5002800F0AF8043F60003044600685E
:10282000C4F2000343F2000E43F6004C9842C4F297
:10283000010EC4F2000C4FF00001A16204D060450B
:1028400018BF704540F09380E16B0125E268984223
:1028500002F1080205EB51114FEAD20202FB01F12D
:1028600018BF704572D1102900F2858094F881005C
:1028700028B9002084F88000204600F099F8022052
:1028800084F881002068D4F818C00268BCF1806F19
:1028900022F001020260826802F4F8120FD163682C
:1028A0002BB1B3F5800F0AD1A56B25B13BB9A36B52
:1028B000B3F1805F03D1036843F480530360E3699D
:1028C000A56A1A43E36B2A431343D4E90316D4E9F8
:1028D000012E19438160616BA56B636A41EA0C01AB
:1028E00019436369294341EA0601266A41EA030163
:1028F000E36C41EA0601A66C41EA020141EA0301E8
:10290000A36D41EA0E0141EA060141EA0301C160FB
:102910004AB98168012363F3CC2181608168022375
:1029200063F34A218160016D520221F001010165CA
:1029300005D5C168626D21F000411143C1600020DE
:10294000C4F88400012184F8811070BD604518BF6F
:10295000082910D8984218BF70453FF484AF6045ED
:102960007FF484AF102984BF012070BD7EE7E16849
:102970000F297FF669AF012070BD00000000000044
:1029800080B543F200010068C4F20101884218BF1B
:1029900080BD44F2F040C5F60200016821F4805188
:1029A00001600020E021C5F60200FFF791FA80BD2A
:1029B00080B586B043F200020068C4F20102002133
:1029C00090420591CDE903110291019101D006B029
:1029D00080BD44F2E0400123C5F6020050F8902C7F
:1029E00063F30E3240F8902C026942F48052026187
:1029F000026902F480520092009A026842F00102D9
:102A00000260006800F0010000900098E020019052
:102A10000220CDE902010490052005900020C5F6B2
:102A2000020001A9FFF7E0FA06B080BD0000000037
:102A30002DE9F047044690F88000012802D10220D9
:102A4000BDE8F0871D4616460F46D4F800900120D9
:102A500084F88000FFF7A4FB94F8811080460129D8
:102A60000ED06068B0F5800F04D1A068002808BFC0
:102A7000042905D0002084F880000220BDE8F087FA
:102A80001FB1002E18BF002D05D1002084F8800052
:102A90000120BDE8F08794F88100042802D00520C9
:102AA00084F881000021C4F8841066664FF6FF7335
:102AB000A4F86A50A4F86850E765A4F8625020684A
:102AC000A4F860502167616761684268B1F5800FC2
:102AD00022EA03022A444260026842F001010160D6
:102AE00003D1016841F400710160E068DDF820A0C5
:102AF000102835D348F208090AF101072E4600BF15
:102B000055EA060000F0A6802068416989070CD5C7
:102B10005DB1E16D51F8042B0262E165B4F8621019
:102B20000139A4F86210B4F86250416911EA090F42
:102B300018BF002E0BD0006B616E41F8040B61666C
:102B4000B4F86A000138A4F86A00B4F86A60FFF7C4
:102B500027FB002FD4D0A0EB08005045D0D367E06E
:102B60000AF101072E46072830D900BF55EA0600B2
:102B700070D02068416989070DD565B1E16D31F8E4
:102B8000022BA9F82020E165B4F862100139A4F8FD
:102B90006210B4F862504069C00718BF002E0CD014
:102BA000B9F83000616E21F8020B6166B4F86A0072
:102BB0000138A4F86A00B4F86A60FFF7F1FA002F50
:102BC000D4D0A0EB08005045D0D331E055EA060040
:102BD00040D02068416989070ED56DB1E16D097853
:102BE00080F82010E06D0130E065B4F86200013833
:102BF000A4F86200B4F8625020684169C90718BFA0
:102C0000002E0DD090F83000616E0870606E0130BB
:102C10006066B4F86A000138A4F86A00B4F86A6023
:102C2000FFF7BEFA002FD1D0A0EB08005045CDD35E
:102C3000204602F049FB002084F88000D4F884008C
:102C400040F48070C4F88400012084F881000320DF
:102C5000BDE8F0870AF101052068406910F0080618
:102C60000ED1FFF79DFA002DF6D0A0EB08005045DD
:102C7000F2D32EB9D4F8840040F02000C4F88400C8
:102C8000204602F021FB002084F88000012084F817
:102C90008100D4F88400002818BF0120BDE8F08727
:102CA000411E0020B0EB116F01D0012070474EF2A1
:102CB0001002F023CEF2000251604EF62351CEF204
:102CC00000010B7007219060116070470000000048
:102CD0007047000000000000704700000000000086
:102CE000704700000000000060B310B5044690F883
:102CF0003D0028B9002084F83C00204600F024F86C
:102D0000022084F83D002068211D02F05DFD0120B5
:102D100084F8480084F83E0084F83F0084F84000BE
:102D200084F8410084F8420084F8430084F84400A9
:102D300084F8450084F8460084F8470084F83D0094
:102D4000002010BD01207047704700000000000007
:102D500090F83D1001291BD1022180F83D10016837
:102D600041F2FF70C4F200008142C86840F00100E7
:102D7000C8600FDC40F2FF70C4F20000814217DC33
:102D8000B1F1804F2BD040F20040C4F2000024E0AB
:102D90000120704740F2FF30C4F20100814212DC92
:102DA00041F60000C4F20000814218D0002012E079
:102DB00040F60000C4F20000814210D040F600400E
:102DC000C4F2000009E044F20000C4F201008142B4
:102DD00005D040F20040C4F2010081420BD107222D
:102DE0008868C0F2010202400020062A18BFB2F52E
:102DF000803F00D17047086840F001000860002063
:102E00007047000000000000704700000000000054
:102E100010B5044600680169890744BFC1685FEACC
:102E2000817140D420680169490744BFC1685FEAE5
:102E3000417144D420680169090744BFC1685FEA51
:102E4000017149D420680169C90644BFC1685FEABD
:102E5000C1614DD420680169C9071CBFC1685FEA20
:102E6000C17152D120680169090644BFC1685FEA97
:102E7000016151D420680169C90544BFC1685FEA96
:102E8000016150D420680169490644BFC1685FEA06
:102E900041614FD420680169890644BFC1685FEA77
:102EA00081614ED410BD6FF00201016101212177D3
:102EB000806980074CD02046FFF7A6FF4EE06FF0F8
:102EC0000401016102212177806910F4407F48D01C
:102ED0002046FFF799FF4AE06FF0080101610421E5
:102EE0002177C069800745D02046FFF78DFF47E076
:102EF0006FF01001016108212177C06910F4407F53
:102F000041D02046FFF780FF43E06FF001010161EF
:102F1000204600F049F8A5E76FF0800101612046E6
:102F2000FFF7DAFEA6E76FF4807101612046FFF734
:102F3000CFFEA7E76FF040010161204600F040F8A6
:102F4000A8E76FF0200101612046FFF7C9FE10BD20
:102F5000204600F021F8204600F022F800202077DB
:102F600060E7204600F018F8204600F019F800202D
:102F700020775FE7204600F00FF8204600F010F8B9
:102F8000002020775EE7204600F006F8204600F09B
:102F900007F8002020775DE7704700000000000080
:102FA000704700000000000080B541F20041006859
:102FB000C4F20001884218BF80BDFFF7F9F880BD58
:102FC000704700000000000070B54CF26010302126
:102FD000C2F20000FDF7A7FC4CF2C0103021C2F293
:102FE0000000FDF7A0FC4CF228403021C2F20000A6
:102FF000FDF799FC4DF620700025C2F20000032178
:103000000322C0E90055C0E90255C0E904554DF25C
:10301000B820C2F20000C0E90055C0E90255C0E97D
:1030200004554CF25840C2F20000C0E90055C0E916
:103030000255C0E904554CF26820C2F20000C0E914
:103040000055C0E90255C0E904554CF21810C2F20F
:103050000000C0E90055C0E90255C0E9045542F23C
:103060007840C2F2000011F0DFFA42F21040002670
:10307000C2F20000C3F6F076C821C0E90056C0E9EC
:103080000255C0E90455C0E9065542F22850C2F283
:103090000000FDF748FC42F2F050C821C2F20000E7
:1030A000FDF741FC40F2387042F2C844C2F2000021
:1030B000C2F200044821C0E90055C0E90255C0E948
:1030C00004552046FDF72FFC4CF230103021C2F29F
:1030D0000000C4E90056C4E90856C4E91056FDF7DB
:1030E00022FC4CF2F0103021C2F20000FDF71BFC74
:1030F00042F2304045F2A642C2F200004FF0804159
:10310000C4F258120124C0E9001242F23840C2F25F
:103110000000C0E900124DF6B0704BF26961C2F2D6
:10312000000048F68672CFF69651C4F22302C0E939
:10313000001248F2B0400421C2F20100C0E900557B
:10314000C0E90255C0E9045548F29840C2F20100B6
:10315000C0E90055C0E90255C0E9045548F2F840FD
:10316000C2F20100C0E90055C0E90255C0E90455AA
:1031700048F2E040C2F20100C0E90055C0E9025542
:10318000C0E9045548F2C840C2F20100C0E9005548
:10319000C0E90255C0E904554EF62850C2F20000BD
:1031A000056042F22050C2F20000C0E9005542F230
:1031B0001850C2F20000C0E900554EF6D840C2F2E5
:1031C000000001604EF63450C2F20000402104605D
:1031D0004CF2E000C2F2000005604EF6FC40C2F284
:1031E000000001604CF20060C2F200004FF4406148
:1031F000FDF799FB4EF670402821C2F200000560F1
:103200004EF68040C2F2000005604CF2C000C2F2EF
:10321000000005604EF60050C2F2000001604EF65C
:103220004850C2F20000482104604CF2F400C2F29F
:10323000000005604CF20C10C2F2000005604EF672
:103240009440C2F2000005604EF68C40C2F20000CD
:1032500005604EF69040C2F2000005604DF63870F1
:10326000C2F20000C0E90055C0E90255C0E90455AA
:103270004CF27040C2F20000C0E90055C0E90255AE
:10328000C0E904554EF6E040C2F2000005604EF67B
:10329000DC40C2F2000005604CF21010C2F20000E7
:1032A00005604EF65450C2F2000005604DF65070B5
:1032B000C2F20000FDF737FB4CF2C4004FF4FA6194
:1032C000C2F200004FF0333205604CF2D800C2F277
:1032D0000000056048F24050C2F20100C0E900550C
:1032E000C0E90255C0E904554CF2B050C2F20000EA
:1032F000C0E90055C0E90255C0E904554EF620501A
:10330000C2F2000005604EF6B840C2F2000005604F
:103310004DF24820C2F20000C0E900554EF62C5094
:10332000C2F20000056042F2B170C2F20000C56551
:103330000566856544F61010C2F200004564056418
:1033400044F6C000C2F20000C56485644EF63C50ED
:10335000C2F20000C0E9001484604EF6A840C2F238
:1033600000000921C0E90055C0E902554EF624507D
:10337000C2F2000004604CF2EC00C2F200000560F2
:103380004CF2F000C2F2000005604EF63050C2F27E
:10339000000001604CF20410C2F2000043F233312D
:1033A000C3F6F37105604CF20810C2F2000005602C
:1033B0004CF20010C2F2000004604DF61870C2F228
:1033C0000000C0E900554CF2F800C2F200000560B0
:1033D0004EF64C50C2F2000005604EF66840C2F254
:1033E000000005604DF29820C2F20000C0E9002103
:1033F0004EF61C504FF46171C2F2000001604CF2B5
:10340000BC00C2F2000005604EF67C40C2F2000033
:1034100005604EF60C50C2F2000005604DF6B87023
:10342000C2F20000C0E90055C0E90255C0E90455E8
:103430004EF61850C2F2000005604EF66040C2F22F
:10344000000005604EF66440C2F2000005604DF6D3
:103450000070C2F20000C0E90055C0E90255C0E9A1
:1034600004554DF27020C2F20000C0E900554EF63E
:103470007440C2F2000005604EF67840C2F20000CF
:1034800005604DF20020C2F20000C0E90055C0E91D
:103490000255C0E904554CF2D000C2F2000005709C
:1034A0004EF6A040C2F2000005604EF25820C2F273
:1034B0000000057040F20C40C2F20000046040F2CF
:1034C0001040C2F20000046070BD00000000000067
:1034D00082B049F600004EF21004C1F6F07001907F
:1034E000CEF20004012080F310880025256065607D
:1034F000A560FEF7A5FF4FF0FF3000BF04EB85018C
:103500000135082DC1F87001C1F87002F6D1002014
:1035100080F3108801994968019A126882F308883B
:1035200080F31488884700BFFEE700000000000019
:10353000B0B511F5803F17D140F20041C4F202014D
:10354000884264D00021C4F20201884240F0B88071
:1035500044F28040C5F60200016841F001010160BB
:10356000016821F001015DE045F6607240F2000C57
:10357000C0F60102C4F2020C6045535C1A5822F0F6
:1035800001021A5008BF00294FD00CF58063984201
:1035900008BF00294CD0604508BF01294BD0984294
:1035A00008BF01294AD0604508BF022949D0984286
:1035B00008BF022948D0604508BF032947D0984278
:1035C00008BF032946D0604508BF042945D098426A
:1035D00008BF042944D0604508BF052943D098425C
:1035E00008BF052942D0604508BF062941D098424E
:1035F00008BF062940D080EA0C0E81F007020CF5C6
:10360000976552EA0E0208BF0CF1B80536E044F2A5
:103610008040C5F60200016841F0020101600168C6
:1036200021F0020101600020B0BD0CF1100525E081
:103630000CF5826522E00CF128051FE00CF585658C
:103640001CE00CF1400519E00CF5886516E00CF162
:10365000580513E00CF58B6510E00CF170050DE0DA
:103660000CF58E650AE00CF1880507E00CF5916514
:1036700004E00CF1A00501E00CF594650CEB81036E
:10368000002203F502642A606A606045AA6008BFF0
:1036900003F50064EA602A614FF021026A61226842
:1036A00022F0FF02226069B10139062908D8DFE85B
:1036B00001F0040D101315181B004FF4746102E0A3
:1036C0000120B0BD3F2181600020B0BD4FF47C11CE
:1036D000F9E74FF07461F6E73F2107E04FF47461BA
:1036E00004E04FF47C1101E04FF07461C1600020F0
:1036F000B0BD0000000000002DE9F0410B6893FA16
:10370000A3F2B2FA82F233FA02F558D04FF0010C6C
:1037100019E005FB05F74E69D0F824E07F437E43AE
:10372000C7EB07152EEA0507374347624F68E643A4
:1037300005687B4305EA06073B43036001320B68DB
:1037400033FA02F73BD00CFA02F513EA050EF5D076
:103750004D686C1E012C13D80EFB0EF4D0F80880B7
:103760008F6804EB44067C4328EA0606CF6834439E
:103770008460446807FB03F624EA03033343436091
:103780000EFB0EF30E69C768022D03FB06F603EB72
:10379000430427EA040747EA0605C560C6D15FEA85
:1037A0001E25B6D103FB03F74E69D0F820E07E4317
:1037B000C7EB07152EEA050737430762B6E7002077
:1037C000BDE8F0810000000080B544F2004EC5F66F
:1037D000020EDEF8282002F00302022A0AD0012A93
:1037E0000ED022B9DEF80020520700F1AA804FF077
:1037F000000C0EE0DEF800204FF0FA73920306E0B2
:10380000DEF8002040F60013D205C0F23D0303EAC3
:10381000E27C00228260C0E90022DEF82830DEF877
:103820003020DEF82C10C907C3F3051379D19FEDC2
:103830004A0A002B00F084806FF35F22DEF82C1020
:10384000C90302F1010220D501EE10CA02EE103ABE
:1038500003EE102ADEF83010C1F34621B8EE411A0B
:10386000B8EE422A0131B8EE433A81EE021A30EE48
:10387000032A21EE021A02EE101AB8EE422A81EE55
:10388000021ABCEEC11A80ED001ADEF82C10890372
:1038900020D501EE10CA02EE103A03EE102ADEF82F
:1038A0003010C1F30641B8EE411AB8EE422A013198
:1038B000B8EE433A81EE021A30EE032A21EE021AE4
:1038C00002EE101AB8EE422A81EE021ABCEEC11ABC
:1038D00080ED011ADEF82C10490358BF80BD01EEBF
:1038E00010CA02EE103A03EE102ADEF83010C1F3CF
:1038F0000661B8EE411AB8EE422A0131B8EE433AF9
:1039000081EE021A30EE030A21EE000A01EE101ACF
:10391000B8EE411A80EE010ABCEEC00A80ED020A40
:1039200080BDDEF834109FED0D1AC1F3CC0100EE1E
:10393000101AB8EE400A20EE010A002B7FF47CAF8B
:1039400080BDDEF8002049F20003C0F2D033C2F39C
:10395000C10223FA02FC5CE700000000000000390D
:1039600080B544F2004EC5F6020EDEF8282002F0C3
:103970000302022A0AD0012A0ED022B9DEF8002062
:10398000520700F1AA804FF0000C0EE0DEF8002094
:103990004FF0FA73920306E0DEF8002040F60013C1
:1039A000D205C0F23D0303EAE27C00228260C0E956
:1039B0000022DEF82830DEF83820DEF82C10C906A8
:1039C000C3F3053379D49FED4A0A002B00F08480BD
:1039D0006FF35F22DEF82C10090302F1010220D5FB
:1039E00001EE10CA02EE103A03EE102ADEF838108B
:1039F000C1F34621B8EE411AB8EE422A0131B8EEC1
:103A0000433A81EE021A30EE032A21EE021A02EE48
:103A1000101AB8EE422A81EE021ABCEEC11A80EDED
:103A2000001ADEF82C10C90220D501EE10CA02EEF1
:103A3000103A03EE102ADEF83810C1F30641B8EE52
:103A4000411AB8EE422A0131B8EE433A81EE021A29
:103A500030EE032A21EE021A02EE101AB8EE422AC4
:103A600081EE021ABCEEC11A80ED011ADEF82C10AC
:103A7000890258BF80BD01EE10CA02EE103A03EE73
:103A8000102ADEF83810C1F30661B8EE411AB8EE1C
:103A9000422A0131B8EE433A81EE021A30EE030AAF
:103AA00021EE000A01EE101AB8EE411A80EE010A6A
:103AB000BCEEC00A80ED020A80BDDEF83C109FED2E
:103AC0000D1AC1F3CC0100EE101AB8EE400A20EE38
:103AD000010A002B7FF47CAF80BDDEF8002049F2A4
:103AE0000003C0F2D033C2F3C10223FA02FC5CE748
:103AF000000000000000003910B544F20044C5F693
:103B00000204A26A02F00302022A09D0012A0CD0A0
:103B10001AB92268520700F19E804FF0000E0CE0A7
:103B200022684FF0FA73920305E0226840F6001312
:103B3000D205C0F23D0303EAE27E00228260C0E9C2
:103B40000022A36A226CE16AC905C3F3055302D4BB
:103B50009FED460A0AE0616C9FED451AC1F3CC0166
:103B600000EE101AB8EE400A20EE010A002B18BF32
:103B7000BEF1000F00D110BD6FF35F22E16A490270
:103B800002F1010C1FD501EE10EA02EE103A03EE2D
:103B900010CA216CC1F34621B8EE411AB8EE422A90
:103BA0000131B8EE433A81EE021A30EE032A21EEDB
:103BB000021A02EE101AB8EE422A81EE021ABCEE88
:103BC000C11A80ED001AE16A09021FD501EE10EA60
:103BD00002EE103A03EE10CA216CC1F30641B8EEB2
:103BE000411AB8EE422A0131B8EE433A81EE021A88
:103BF00030EE032A21EE021A02EE101AB8EE422A23
:103C000081EE021ABCEEC11A80ED011AE16AC90107
:103C100058BF10BD01EE10EA02EE103A03EE10CAD2
:103C2000216CC1F30661B8EE411AB8EE422A0131A7
:103C3000B8EE433A81EE021A30EE030A21EE000A92
:103C400001EE101AB8EE411A80EE010ABCEEC00A6D
:103C500080ED020A10BD226849F20003C0F2D033A1
:103C6000C2F3C10223FA02FE67E700BF00000000B2
:103C7000000000390000000010B584B040F244217B
:103C80000246C0F30423C0F2580161F31F2244F23C
:103C90000044010EC5F60204D26C99401140D9408F
:103CA00040EA01410720C0F2037081424FF000005A
:103CB00017DC40F20732C0F20172914228DC082280
:103CC000C0F20072914271D040F20832C0F200722C
:103CD000914200F07E800822C0F20172914255D0DC
:103CE00052E040F20732C0F20472914228DC08220E
:103CF000C0F2037291423BD040F20832C0F203722C
:103D0000914235D00822C0F20472914244D03BE087
:103D100040F20832C0F20172914237D00822C0F25C
:103D20000272914205D040F20832C0F20272914212
:103D30002AD1206880002CD501A8FFF7DDFE5EE0C7
:103D400040F20832C0F20472914225D00822C0F23B
:103D50000572914205D040F20832C0F205729142DC
:103D600012D1206F4FF4004101EA803004B010BD41
:103D7000206840070DD5206849F20001C0F2D0311B
:103D8000C0F3C10021FA00F004B010BD20680001AA
:103D900032D4002004B010BD206840F60011C005E8
:103DA000C0F23D0101EAE07004B010BD2069C0F32B
:103DB000C200032826D8DFE800F002272C2F206855
:103DC00049F20001C0F2D031C0F3C10021FA00F085
:103DD00026E02069C0F3C20003283DD8DFE800F0E8
:103DE000022F3437206849F20001C0F2D031C0F30D
:103DF000C10021FA00F030E001A8FFF7B1FD029800
:103E000004B010BD00200BE040F60010C0F23D00F1
:103E100006E04FF0FA7003E001A8FFF7D5FC019827
:103E2000A16945F62C52C0F60102A369C1F3032132
:103E3000E46903F00F03C4F30214515C1BE040F685
:103E40000010C0F23D0008E04FF0FA7005E001A854
:103E5000FFF7BAFC019800E00020A16945F62C525A
:103E6000C0F60102A369C1F30321E46903F00F0363
:103E7000C4F30224515CD35C125D01F01F01C84001
:103E800003F01F01C84002F01F01C84004B010BD7C
:103E900040F20041C2F200010860704700000000DB
:103EA00041F6FF320146C4F2000290424FF0010099
:103EB00025DC40F6FF32C4F20002914245DD41F2BA
:103EC000FF32C4F2000291427CDC40F60042C4F2B0
:103ED0000002914200F0A78041F20002C4F2000209
:103EE000914240F0058144F29040C5F6020001681D
:103EF00041F010010160016821F01001E8E040F29A
:103F0000FF32C4F2010291423DDD44F2FF32C4F2BD
:103F1000010291426FDC40F20042C4F20102914280
:103F200000F08D8044F20002C4F20102914240F0A0
:103F3000DF8044F29040C5F60200816841F4803190
:103F40008160816821F4803184E0B1F1804F00F01C
:103F5000848040F20042C4F20002914200F0898065
:103F600040F60002C4F20002914240F0C18044F2E7
:103F70009040C5F60200016841F00401016001684B
:103F800021F00401A4E041F60042C4F20002914293
:103F90007BD042F20002C4F20002914200F0818024
:103FA0000022C4F20102914240F0A28044F290400B
:103FB000C5F60200816841F001018160816821F04D
:103FC000010147E041F20042C4F20002914274D084
:103FD00041F60002C4F20002914240F0898044F2AE
:103FE0009040C5F60200016841F04001016001689F
:103FF00021F040016CE044F20042C4F2010291421F
:1040000069D044F60002C4F20102914270D144F238
:104010009040C5F60200816841F48021816081688A
:1040200021F4802116E044F29040C5F602000168B8
:1040300041F008010160016821F0080148E044F204
:104040009040C5F60200816841F0020181608168FC
:1040500021F0020181600020704744F29040C5F6D3
:104060000200016841F001010160016821F00101D5
:104070002EE044F29040C5F60200016841F00201D2
:104080000160016821F0020122E044F29040C5F68F
:104090000200016841F080010160016821F08001A7
:1040A00016E044F29040C5F60200016841F48071C8
:1040B0000160016821F480710AE044F29040C5F685
:1040C0000200016841F020010160016821F0200137
:1040D00001600020704744F29040C5F602008168FC
:1040E00041F400318160816821F400318160002059
:1040F000704700000000000040F6FF330246C4F2A3
:104100000003984200680FDCB2F1804F1DD040F2EE
:104110000043C4F200039A4217D040F60003C4F2F1
:1041200000039A4211D014E040F60043C4F20003A9
:104130009A420AD040F20043C4F201039A4204D0EA
:104140000023C4F201039A4203D120F070004B68AF
:1041500018434FF6FF7343F6FF7CC4F20003C4F22A
:10416000010C9A4210DD62451ADD44F20003C4F2EC
:1041700001039A422CD044F60003C4F201039A4290
:1041800026D044F2004312E040F2FF73C4F2000371
:104190009A4211DCB2F1804F1AD040F2004313E092
:1041A0000023C4F201039A4212D040F20043C4F249
:1041B00001039A420CD00FE040F60003C4F2000362
:1041C0009A4205D040F60043C4F200039A4203D15C
:1041D00020F44070CB681843106062458868D06254
:1041E000088890620EDD44F20000C4F201008242B1
:1041F00013D044F60000C4F2010082420DD044F214
:10420000004006E00020C4F20100824205D040F2E6
:104210000040C4F20100824201D108691063516973
:10422000002041F0010151617047000000000000D2
:1042300047F2FF720146C4F2000290424FF00100C3
:104240001DDC44F6FF32C4F20002914235DC44F238
:104250000042C4F2000291425FD044F60002C4F270
:104260000002914272D144F29040C5F6020001680A
:1042700041F480210160016821F4802172E040F660
:10428000FF72C4F2010291422FDC47F60002C4F231
:10429000000291424DD047F60042C4F20002914222
:1042A00054D144F29040C5F60200016841F000414B
:1042B0000160016821F0004154E044F60042C4F27C
:1042C0000002914243D045F20002C4F20002914242
:1042D0003CD144F29040C5F60200016841F48011DF
:1042E0000160016821F480113CE041F20042C4F217
:1042F0000102914239D041F20002C4F2010291421E
:1043000024D144F29040C5F60200816841F01001CA
:104310008160816821F0100132E044F29040C5F6DE
:104320000200016841F400310160016821F40031AC
:1043300018E044F29040C5F60200016841F0804167
:104340000160016821F0804101600020704744F263
:104350009040C5F60200016841F400210160016847
:1043600021F4002101600020704744F29040C5F61E
:104370000200816841F020018160816821F0200104
:104380008160002070470000B0B504460068C00797
:1043900035D10D4646F6F31105F108032068CEF637
:1043A000FF7108400ECB084369691843EB69084365
:1043B00018432060616847F2FF7321F440510820E0
:1043C00011436160A969A26822F44072C4F200033B
:1043D000C0F2007011439C42A1604FF0000110DC5C
:1043E00044F6FF32C4F20002944219DC44F2004267
:1043F000C4F20002944249D044F6000218E00120C1
:10440000B0BD40F6FF72C4F20102944230DC47F6C0
:104410000002C4F20002944238D047F6004207E09E
:1044200044F60042C4F2000294422FD045F200024A
:10443000C4F20002944229D069B3686868B32A685C
:104440000B2A32D8D2B21DA353F82220B1FBF2F1CD
:10445000EA69B2F5004F22D1490001EB5001B1FBEE
:10446000F0F04FF6F0710140C0F3420008441BE049
:1044700041F2000200F54070C4F20102944205D0FE
:1044800041F20042C4F201029442D5D1FFF7F4FB9D
:1044900001460029D1D1012008E0012006E001EB0E
:1044A0005001B1FBF0F080B2E06000202988E26AA0
:1044B00022F00F021143E162B0BD00BF0100000015
:1044C00002000000040000000600000008000000D8
:1044D0000A0000000C000000100000002000000096
:1044E000400000008000000000010000000000000B
:1044F0002DE9F04784B0FDF723FF0120ADF800005F
:104500004FF01050019012208DF808004FF4807089
:10451000ADF809000020EA46C0F2011003905046B1
:104520004FF003098DF80B90FDF7DAFE40F2011011
:10453000ADF800004FF0C04001904FF08070039044
:1045400050464FF00F088DF8088000278DF80B902B
:10455000ADF80970FDF7C4FE40F20120ADF800008F
:104560004FF040500190504610258DF808504FF400
:1045700080368DF80B90ADF809700396FDF7B0FE0C
:1045800040F20130ADF8000000245046C3F20204AE
:1045900001948DF808508DF80B90ADF809700396D2
:1045A000FDF79EFE40F20140ADF8000004F500303A
:1045B00001900E208DF8080050468DF80B90ADF854
:1045C00009700396FDF78CFE40F20150ADF8000033
:1045D0004FF06050019050468DF808808DF80B9098
:1045E000ADF809700396FDF77BFE0420FDF7B8FED9
:1045F00004B0BDE8F087000082B044F2D8404EF627
:104600000C5CC5F60200CEF2000C4EF20013002244
:104610000168CEF2000341F001010160016801F080
:10462000010100910099016841F0020101600068F8
:1046300000F0020001900198DCF800104EF20B41EE
:104640004FF40060CEF200010A701860DCF8000040
:104650004A704FF480501860DCF800008A704FF404
:1046600000501860DCF80000CA704FF480401860F9
:10467000DCF8000081F82D204FF080705860DCF8E5
:10468000000081F82F204FF080605860DCF80000B7
:1046900081F830204FF00060586002B07047000091
:1046A000F0B587B044F2E0400026C5F602000024D1
:1046B000CDE90466CDE90266CDE900660168C5F67C
:1046C000020441F08001016001686D4601F0800143
:1046D00006910699016841F0010101600168012716
:1046E00001F0010106910699016841F01001016095
:1046F000016801F0100106910699016841F002017C
:10470000016000684FF0807100F00200069006988A
:104710004FF48010A06141F21800C5F6020001605C
:104720004FF40000C4F818041020009020462946D9
:10473000CDE90176CDE90367FEF7DEFF4FF4807027
:104740002946CDE9000704F580500497CDE90266BB
:10475000FEF7D2FF80202946CDE9000704F58060EE
:104760000497CDE90266FEF7C7FF07B0F0BD000071
:10477000F0B585B04EF6A85066A1C2F20000002246
:1047800000230EF079FF4EF2B80063A1C2F20000E0
:10479000002200230EF070FF48F224405FA1C2F215
:1047A0000100002200230EF067FF4EF2D4205CA12E
:1047B000C2F20000002200230EF05EFF4CF2A04087
:1047C00058A1C2F20000002200230EF055FF4EF265
:1047D0006C3448F20020C2F2000443F66142C2F297
:1047E00001000090802001900A2002904FA1C0F2A9
:1047F000000200232046052503950FF0B1F820465E
:104800000FF062F94CF2C04447F2F010C2F200041B
:1048100042F62932C2F2010000900920029046A11E
:10482000C0F20002002320464FF400670197039571
:104830000FF096F820460FF047F940F2985446F2F0
:10484000E850C2F2000440F6F152C2F201003EA16B
:10485000CDE9000706200290C0F2000200232046A6
:104860001E2603960FF07CF820460FF02DF94EF22D
:10487000F42447F6F410C2F2000443F6A122C2F277
:10488000010034A1CDE9000704200290C0F200022B
:1048900000231420039020460FF062F820460FF00A
:1048A00013F94CF2385446F6F050C2F2000443F2C9
:1048B0005912C2F2010000904FF48060019008206C
:1048C000029028A1C0F2000200233220039020466B
:1048D0000FF046F820460FF0F7F840F200544EF67D
:1048E000E850C2F2000440F2C122C2F2000000907F
:1048F0004FF4F0401EA1CDE90105C0F200020023F3
:10490000204603960FF02CF820460FF0DDF805B096
:10491000F0BD00BF707073006770730073796E0034
:10492000696D750064656275670000004C45445F01
:104930007461736B00000000646562756772656383
:104940005F7461736B0000004750535F7461736B59
:1049500000000000696D75646174615F7461736B60
:104960000000000064656275675F7461736B00002E
:1049700043616C635F7461736B00000000000000B2
:1049800010B54EF2F00443F20000C2F20004C4F28B
:104990000100072120604FF4800060600020A060CB
:1049A000C4E9031060614FF08061A1614FF0405194
:1049B000C4E90710C4E90900E0624FF08040606379
:1049C00004F138002421FBF7AEFF2046FDF720FF5D
:1049D000002808BF10BDFDF74BF810BD0000000017
:1049E00010B586B044F2E8410020C5F602010490FB
:1049F000CDE90200CDE900000A684FF0804442F0A2
:104A000001020A6009684EF2001201F001010591ED
:104A100005994EF60C51CEF20001CEF20002096863
:104A200082F81C034FF08051116040F6FF01ADF891
:104A3000001001907C21CDE9021069464FF08040C2
:104A4000FFF75AFB20684BF6F87220F080002060D8
:104A50000820CFF6FE72C4F2000001681140016028
:104A600050F8041C21F0700140F8041C016821F08A
:104A700080010160416841F00101416006B010BD54
:104A800070B590B040F210450021C4F20205A5F1C6
:104A90001000FEF74DFD00BF2868C007FCD144F2AE
:104AA000E0400026C5F6020045F20004CDE90D669F
:104AB000CDE90B66CDE90966CDE90766CDE9056666
:104AC000CDE90366CDE9016650F88C1CC4F2000400
:104AD00021F0070140F88C1C816841F4801181604D
:104AE000816801F480110F910F99016841F0020172
:104AF0000160006801A900F002000F900F984FF4C8
:104B0000405001900220CDE902060E20069040F2AE
:104B100000400496C5F602000596FEF7EDFD40F64E
:104B200004004122C4F20200016862F3070101603F
:104B30004FF61841CFF6FF716A5822F0C0026A5052
:104B40006A5822F440326A506A5822F490726A50CD
:104B50006A5822F400726A506A5842F480626A50BD
:104B60006A5822F4C0526A506A5822F4C0426A500D
:104B70004FF62C41CFF6FF716A5822F004026A50BA
:104B8000C169422262F30701C1612868012161F312
:104B900087102860286807A920F44030286028681A
:104BA00020F490702860286820F40070286028683D
:104BB00040F480602860286820F4C050286028688D
:104BC00020F4C0402860686920F0040068614FF458
:104BD000E1300796CDE908060C200E96CDE90C06CB
:104BE0002046CDE90A66FFF7CFFB206820F0005091
:104BF000206045F20800C4F2000000BF50E8001F2A
:104C000021F0604140E80012002AF7D150E8001F6F
:104C100021F0606140E80012002AF7D1606820F4BA
:104C200090406060A06820F02A00A060206840F0FA
:104C300001002060E0698002FCD5E0694002F9D5FE
:104C400010B070BD000000002DE9F04790B047F6AD
:104C500000041027C4F20004002104F5C430C4F29B
:104C60000207FEF765FC00BF3868C007FCD144F2BC
:104C7000E0400025C5F6020040F20008CDE90D55E0
:104C8000CDE90B55CDE90955CDE90755CDE90555D8
:104C9000CDE90355CDE9015550F88C1CC5F6020845
:104CA00021F0070140F88C1C816801AE41F0804181
:104CB000816081684FF0020901F080410F910F99E6
:104CC000016841F01001016001684FF0010A01F034
:104CD00010010F910F99016841F001010160006816
:104CE000314600F001000F900F98802001900720BE
:104CF000069008F58050CDE902950495CDF814A0F2
:104D0000FEF7FAFC4FF400403146CDE901090B20D3
:104D100006904046CDF814A0CDE90355FEF7ECFC13
:104D2000D7F8F0074F2161F30700C7F8F00738689C
:104D30004EF2524120F0C00038603868CEF20001D7
:104D400020F440303860386820F49070386038685B
:104D500020F400703860386840F48060386038684B
:104D600020F4C0503860386820F4C040386078695A
:104D700020F0040078614EF60C50CEF2000000687E
:104D80004EF20810CEF200000D704FF48021016049
:104D900004F12400B86040F2000047F60805C3F2B1
:104DA000000040210430F8607868C4F2000561F327
:104DB0000F00786055E8000F40F0400045E8000122
:104DC0000029F7D138684FF4612140F001003860C4
:104DD0000020079008914FF48051CDE909104FF45D
:104DE00080610B910C210E90CDE90C1007A9204693
:104DF000FFF7CAFA206820F00050206055E8000F45
:104E000020F0604045E800010029F7D155E8000F87
:104E100020F0606045E800010029F7D1606820219A
:104E200020F490406060A06820F02A00A0606069D3
:104E300061F317006061606840F400006060206802
:104E400040F00100206000BFE0698002FCD5E0690D
:104E50004002F9D54020206210B0BDE8F087000084
:104E6000F0B58FB044F200444026C4F200040221A1
:104E700004F5DE35C4F202062846FEF759FB00BFF2
:104E80003068C007FCD103212846FEF751FB00BF64
:104E9000B069C007FCD144F2E0400025C5F602002D
:104EA0000127CDE90C55CDE90A55CDE90855CDE9E5
:104EB0000655CDE90455CDE90255CDE9005550F828
:104EC0008C1C21F0070140F88C1C816841F40031F2
:104ED0008160816801F400310E910E99016841F002
:104EE000010101600068694600F001000E900E9813
:104EF0000C2000900220CDE901050720059000203C
:104F00000395C5F602000497FEF7F6FBD6F8C8072E
:104F10002B2161F30700C6F8C80730682C2220F067
:104F2000C0003060306820F440303060306820F4D9
:104F300090703060306820F400703060306840F469
:104F400080603060306820F4C0503060306820F4F9
:104F5000C0403060706920F00400706140F60C00C1
:104F6000C4F20200016862F307010160B0694EF209
:104F7000264167F38710B061B069CEF2000120F4DA
:104F80004030B061B06920F49070B061B06920F435
:104F90000070B061B06940F48060B061B06920F425
:104FA000C050B061B06920F4C040B061F06A20F038
:104FB0000400F0624EF60C50CEF2000000684EF293
:104FC0000410CEF200000D704021016004F12400B5
:104FD000B06040F2181044F20845C3F20000F060DF
:104FE00070684FF4806161F30F00C4F200057060D7
:104FF00055E8000F40F0400045E800010029F7D1D6
:1050000030684FF4E13140F001003060002006903C
:10501000CDE90710CDE909000C210D90CDE90B1069
:1050200006A92046FFF7B0F955E8000F20F06040D0
:1050300045E800010029F7D155E8000F20F0606035
:1050400045E800010029F7D12068402120F00050F8
:105050002060606820F490406060A06820F02A0022
:10506000A060606961F317006061606840F400004F
:105070006060206840F00100206000BFE0698002AD
:10508000FCD5E0694002F9D5402020620FB0F0BDA8
:10509000F0B58FB044F6000440F24046C4F200047C
:1050A000022104F5DE35C4F202062846FEF740FA76
:1050B0003068C007FCD103212846FEF739FA00BF4B
:1050C000B069C007FCD144F2E0400025C5F60200FB
:1050D0000127CDE90C55CDE90A55CDE90855CDE9B3
:1050E0000655CDE90455CDE90255CDE9005550F8F6
:1050F0008C1C21F0070140F88C1C816841F4802150
:105100008160816801F480210E910E99016841F05F
:10511000020101600068694600F002000E900E98DE
:105120004FF4406000900220CDE901050720059072
:1051300040F200400395C5F602000497FEF7DCFA42
:10514000D6F8E8032D2161F30700C6F8E8033068BC
:105150002E2120F0C0003060306820F440303060F4
:10516000306820F490703060306820F40070306057
:10517000306840F480603060306820F4C0503060A7
:10518000306820F4C0403060706920F00400706125
:10519000D6F8EC0361F30700C6F8EC03B0694EF2F1
:1051A000274167F38710B061B069CEF2000120F4A7
:1051B0004030B061B06920F49070B061B06920F403
:1051C0000070B061B06940F48060B061B06920F4F3
:1051D000C050B061B06920F4C040B061F06A20F006
:1051E0000400F0624EF60C50CEF2000000684EF261
:1051F0000410CEF200000D708021016004F1240043
:10520000B06040F2185044F60805C3F20000F060A8
:1052100070684FF4806161F30F00C4F200057060A4
:1052200055E8000F40F0400045E800010029F7D1A3
:1052300030684FF4E13140F001003060002006900A
:10524000CDE90710CDE909000C210D90CDE90B1037
:1052500006A92046FFF798F855E8000F20F06040B7
:1052600045E800010029F7D155E8000F20F0606003
:1052700045E800010029F7D12068402120F00050C6
:105280002060606820F490406060A06820F02A00F0
:10529000A060606961F317006061606840F400001D
:1052A0006060206840F00100206000BFE06980027B
:1052B000FCD5E0694002F9D5402020620FB0F0BD76
:1052C000FEE7000000000000016840F26F32D1F8F4
:1052D00014C08B6943F008038B618B6943F01003A2
:1052E0008B610B6823F001030B600B6923EA020258
:1052F0000A618A6822F440428A6090F88120042A78
:1053000018BF1CF0200209D0D0F8842042F080029F
:10531000C0F884208A6942F020028A6190F88120D6
:10532000032A18BF1CF0400215D15FEA8C521FD42B
:105330005FEACC5209D5D0F8842042F00802C0F8C8
:1053400084208A6942F480728A610021A0F8621088
:10535000A0F86A107047D0F8842042F00402C0F828
:1053600084208A6942F040028A615FEA8C52DFD56C
:10537000D0F8842042F00102C0F884208A6942F407
:1053800000728A615FEACC52DFD5D4E700000000EA
:105390004EF6A4404EF68441C2F20000C2F2000173
:1053A0004EF6F4424EF6FC4300680968C2F2000271
:1053B000C2F2000390FBF1F1B7EE001B0129D8BF48
:1053C000012112681A604EF6505242F24043C2F276
:1053D0000002C2F2000390FBF1F01268186000EEC8
:1053E000100A90FBF2F240F2F040C2F20000B8EE78
:1053F000C00B016040F2F44081EE000BC2F20000ED
:10540000026040F2F840C2F2000080ED000B7047ED
:1054100080B50EF005F80EF0FFFB0EF011F880BD20
:1054200080B542F200000422C5F20020016862F358
:1054300003010160016801F00F010429FAD144F66B
:105440000C010222C5F60201086862F3020008603E
:1054500044F21840CA68C5F6020042F44042CA60ED
:1054600050F8181C41F4803140F8181C50F8181CF2
:105470008903FBD50169022262F3010101614169DF
:1054800041F480314161416962F3830141614169C5
:10549000082221F002014161016962F309110161F1
:1054A0008169E02262F3080181618169012262F36E
:1054B0004F218161816962F316418161816962F3E3
:1054C0001E61816150F8181C41F0807140F8181C71
:1054D00050F8181C8901FBD50168082262F303010A
:1054E000016050F8081C032262F3020140F8081C16
:1054F00050F8081C01F038011829F9D10168082278
:1055000021F470610160016862F303010160416888
:10551000042262F306114160416862F30A2141608E
:10552000016862F306110160816862F3061181600F
:1055300044F20000C1F67730FEF7AAFC0F20FCF71A
:105540007BFE002808BF80BDEFF3108072B600001C
:1055500044F20040C5F602000169C1F3C202032A09
:1055600011D840F60011C0F23D01DFE802F0026CF4
:105570001619016849F20002C0F2D032C1F3C1012C
:1055800022FA01F15FE0016849F20002C0F2D03274
:10559000C1F3C10122FA01F155E04FF0FA7152E076
:1055A000826A816AC1F3051CC16ABCF1000F436BBA
:1055B0001DD0C3F3CC0301F00101594302F00302F3
:1055C000022A00EE101AB8EE400A12D0012A13D0B7
:1055D0000168002A49F20002C1F3C101C0F2D032D1
:1055E00022FA01F101EE101AB8EE411A06E000218C
:1055F00029E09FED241A01E09FED211A016B9FED38
:10560000223A6FF35F2102EE101A016BC1F34621BB
:10561000B8EE422A013100EE032A00EE10CAB7EEBE
:10562000003AB8EE400A81EE000A32EE031A20EE8C
:10563000010A01EE101AB8EE411A80EE010ABCEE22
:10564000C00A10EE101A826945F61C53C0F6010319
:105650008069C2F3032200F00F009A5C185CD1400D
:1056600040F20442C2F2000200F01F0021FA00F0F2
:10567000106040F20040C2F200000160704700BFBD
:105680000024744A0000FA4B0000003900000000BA
:1056900080B54EF6885C42F2000ECEF2000CC5F2E8
:1056A000002EDCF8001041F47001CCF80010DEF898
:1056B000001001F00F01062906D8DEF800100722BD
:1056C00062F30301CEF8001044F200414EF67F531E
:1056D000C5F60201CEF6F6230A6842F001020A601E
:1056E00000220A61086818400860DEF80000000720
:1056F00006D5DEF80000072363F30300CEF80000B0
:1057000040F200208A61CA61C0F202200A62886207
:105710000020C0F2FF10C86240F28020C0F20110E9
:1057200008634A638863CA6308644A64086820F4AB
:105730008020086041F200000A66C5F6004000685B
:10574000B2EB507F05D148F208100121C5F20010DC
:10575000016044F2000043F2D201C5F20020016072
:105760004FF000604CF8800C80BD0000000000008D
:10577000B0B51024C4F200040DF052FE2068C0073A
:1057800014D042F2C045C2F20005287801302870DA
:105790000EF04FFF2878C00705D04CF2FC00012125
:1057A000C2F2000001706FF0010020600DF048FEB1
:1057B000B0BD00000000000080B54EF27810C2F2CB
:1057C0000000FDF725FB80BD10B540F6FF32C4F2A6
:1057D0000002904202680FDCB0F1804F1DD040F211
:1057E0000043C4F20003984217D040F60003C4F20D
:1057F0000003984211D014E040F60043C4F20003C5
:1058000098420AD040F20043C4F20103984204D007
:105810000023C4F20103984203D122F070024B68C6
:105820001A434FF6FF7343F6FF7CC4F20003C4F241
:10583000010C984210DD60451ADD44F20003C4F209
:10584000010398422CD044F60003C4F201039842AD
:1058500026D044F2004312E040F2FF73C4F200038A
:10586000984211DCB0F1804F1AD040F2004313E0AF
:105870000023C4F20103984212D040F20043C4F264
:10588000010398420CD00FE040F60003C4F200037D
:10589000984205D040F60043C4F20003984203D179
:1058A00022F44072CB681A4322F080024C696045B2
:1058B000D1F800E08B6842EA04020260C362C0F8DB
:1058C00028E00EDD44F20002C4F20102904213D03F
:1058D00044F60002C4F2010290420DD044F20042AC
:1058E00006E00022C4F20102904205D040F20042DC
:1058F000C4F20102904201D10969016301214161B1
:1059000010BD00000000000080B50DF089FD00F022
:10591000C7FC0DF095FD80BD80B50DF081FD00F058
:10592000D3FB0DF08DFD80BD80B50DF079FD00F04D
:105930003FFC0DF085FD80BD2DE9F04381B02DEDDC
:10594000108BC4B04CF2682841F26005C2F2000826
:10595000C2F200459FED048BA8F108002A1F012127
:1059600006E000BF00BF00BF399D52A246DF913F55
:1059700092ED010A00F10803B7EEC00A04320139C2
:1059800020EE080B80ED020B1846F1D040F2387182
:105990002B1DC2F200010320A1F1080293ED010AC0
:1059A00002F10807B7EEC00A0433013820EE080BF5
:1059B00082ED020B3A46F1D195ED460A0EACB7EEF8
:1059C000C00A204691ED041B20EE080B8DED100B54
:1059D00030EE010B91ED001B8DED0E1BB1EE400B77
:1059E00081ED000B81ED041B0EF028FE42F2C84051
:1059F0000322C2F2000021460EF025FE4DF6507043
:105A000005F1BC02C2F20000A0F10801092000BFAC
:105A100092ED010A01F10803B7EEC00A0432013821
:105A200081ED020B1946F3D14CF2B80095ED050A51
:105A3000C2F20000BDEEC00A4DF2802195ED061ABB
:105A400095ED072A80ED000A4EF66C40C2F2000187
:105A500095ED083AC2F20000BDEEC10A4EF60854B8
:105A6000B7EEC21A002781ED001BB7EEC31A07601C
:105A7000C2F200044DF2782095ED092AC2F200002E
:105A800021EE081B4EF6485984ED000AB7EEC20A13
:105A900080ED001B4DF2882095ED0E3A20EE080BAC
:105AA000C2F20000BDEEC33A95ED0C1A80ED000B7A
:105AB0004DF2A02095ED0B0A95ED0D2AC2F20000E3
:105AC000B7EEC00A4EF64C51B7EEC11AC2F2000949
:105AD000B7EEC22AC2F2000180ED000B80ED021B7E
